:100000000C9434000C9446000C9446000C9446006A
:100010000C9446000C9446000C9446000C94460048
:100020000C9446000C9446000C9446000C94460038
:100030000C9446000C9446000C9446000C94460028
:100040000C9446000C9446000C9446000C94460018
:100050000C9446000C9446000C9446000C94460008
:100060000C9446000C94460011241FBECFEFD4E040
:10007000DEBFCDBF11E0A0E0B1E001C01D92A13014
:10008000B107E1F70E94C7010C9444030C940000EF
:100090008823A9F08130B1F08230B9F08330C1F00B
:1000A0008430C9F08530D1F08630D9F08830E1F065
:1000B0008A30E9F08B30F1F020E030E01DC02FEF06
:1000C0003EE01AC02FE737E017C02FEB33E014C033
:1000D0002FED31E011C02FEE30E00EC027E730E009
:1000E0000BC02FE430E008C027E230E005C023E178
:1000F00030E002C029E030E0C901089580E80E94A4
:100100006F01089583E80E946F01089584E80E94BA
:100110006F0108950E947201089560E040E00E941E
:1001200072010895EF92FF920F931F93BC0180E03C
:1001300090E00E942B0220E030E040E955E40E946C
:10014000B9027B018C017F2D912F20E030E040E847
:100150005FE30E94FB0187FD13C06E2D7F2D802F72
:10016000912F20E03FEF4FE757E40E94B5021816A9
:1001700054F06E2D7F2D802F912F0E94FF0105C01E
:1001800061E070E002C060E070E0CB010197F1F740
:100190001F910F91FF90EF9008958C3040F40E94D2
:1001A0005C01F894789484E690E00E9492000895AF
:1001B0001D9B0BC008955F9884E690E00E9492001A
:1001C0005F9A84E690E00E9492001D9BF4CF5F98B6
:1001D00080ED97E00E9492000895F89478948AE068
:1001E0000E948D000E94D8000E94580188E00E9461
:1001F000CD000E9482000895CF92DF92EF92FF928D
:100200000F931F93DF93CF9300D0CDB7DEB7E82EC7
:10021000062F8CE849835A830E943E018E2D0E944E
:100220003E01802F0E943E0110E0000F111F498106
:100230005A81E42EF52ECC24DD2408C0F7018191EB
:100240007F010E943E010894C11CD11CC016D1063A
:10025000ACF30F900F90CF91DF911F910F91FF9012
:10026000EF90DF90CF9008951F93182F8DE80E9494
:100270003E01812F0E943E011F9108959091C00080
:1002800095FFFCCF8093000108958091C00087FF07
:10029000FCCF8091000108958091C000881F8827BD
:1002A000881F08951092000180E28093C000089595
:1002B00080E80E943E0108951F93182F81E80E9454
:1002C0003E018091C00080648093C000812F0E9415
:1002D0003E018091C00086FFFCCF1F9108950E94CF
:1002E0003E0108951F93DF93CF9300D0CDB7DEB7C3
:1002F000182F8BE84A8369830E943E01812F0E9458
:100300003E016981862F0E943E014A81842F0E940E
:100310003E010F900F90CF91DF911F9108951F9391
:10032000182F87E90E943E01812F0E943E011F91F4
:100330000895EF92FF920F931F93CF93DF93082FAF
:10034000EB01E42E8B32C8F42097B9F08EE80E94BE
:100350003E01802F0E943E0100E010E0FF2409C012
:100360000E944C01882359F00E94450189930F5F38
:100370001F4F0E151F05A4F302C08FEF01C080E0D0
:10038000DF91CF911F910F91FF90EF900895DF9330
:10039000CF93CDB7DEB764970FB6F894DEBF0FBE2C
:1003A000CDBF0E94D8000E94ED0083E290E09A83C6
:1003B000898380E490E09C838B8382E390E09E833A
:1003C0008D8380E290E098878F8380E062E0AE01C9
:1003D0004F5F5F4F0E94FC0080E090E00E9434017C
:1003E00080E090E064960FB6F894DEBF0FBECDBFFC
:1003F000CF91DF9108956CD008F481E0089594D0F6
:1004000088F09F5790F0B92F9927B751A0F0D1F0FD
:10041000660F771F881F991F1AF0BA95C9F712C087
:10042000B13081F09BD0B1E0089598C0672F782F4C
:100430008827B85F39F0B93FCCF3869577956795F3
:10044000B395D9F73EF490958095709561957F4F5F
:100450008F4F9F4F0895E89409C097FB3EF4909505
:100460008095709561957F4F8F4F9F4F9923A9F08D
:10047000F92F96E9BB279395F6958795779567951C
:10048000B795F111F8CFFAF4BB0F11F460FF1BC060
:100490006F5F7F4F8F4F9F4F16C0882311F096E9F3
:1004A00011C0772321F09EE8872F762F05C06623A1
:1004B00071F096E8862F70E060E02AF09A95660F5A
:1004C000771F881FDAF7880F9695879597F9089513
:1004D000990F0008550FAA0BE0E8FEEF1616170655
:1004E000E807F907C0F012161306E407F50798F0BD
:1004F000621B730B840B950B39F40A2661F0232BD6
:10050000242B252B21F408950A2609F4A140A69551
:100510008FEF811D811D089557FD9058440F551F81
:1005200059F05F3F71F04795880F97FB991F61F075
:100530009F3F79F087950895121613061406551FEC
:10054000F2CF4695F1DF08C0161617061806991F58
:10055000F1CF86957105610508940895E894BB274D
:1005600066277727CB0197F90895B2DF08F48FEF5C
:1005700008950BD078C069D028F06ED018F095237C
:1005800009F05AC05FC01124EACFC6DFA0F3959FDF
:10059000D1F3950F50E0551F629FF001729FBB276A
:1005A000F00DB11D639FAA27F00DB11DAA1F649F16
:1005B0006627B00DA11D661F829F2227B00DA11DC9
:1005C000621F739FB00DA11D621F839FA00D611D4F
:1005D000221F749F3327A00D611D231F849F600D70
:1005E000211D822F762F6A2F11249F5750408AF0A9
:1005F000E1F088234AF0EE0FFF1FBB1F661F771F35
:10060000881F91505040A9F79E3F510570F014C0CB
:10061000A6CF5F3FECF3983EDCF386957795679520
:10062000B795F795E7959F5FC1F7FE2B880F911D52
:100630009695879597F9089597F99F6780E870E0F8
:1006400060E008959FEF80EC089500240A94161648
:10065000170618060906089500240A9412161306B0
:10066000140605060895092E0394000C11F488233E
:1006700052F0BB0F40F4BF2B11F460FF04C06F5F5A
:0C0680007F4F8F4F9F4F0895F894FFCFDD
:00000001FF
